:020000040800F2
:100000007808002001010008FB230008572200089F
:10001000F9230008D5090008CD26000800000000DB
:10002000000000000000000000000000252400087F
:10003000CF0B000800000000FD2300082724000863
:100040001B0100081B0100081B0100081B01000820
:100050001B0100081B0100081B0100081B01000810
:100060001B0100081B0100081B0100081B01000800
:100070001B0100081B0100081B0100081B010008F0
:100080001B0100081B0100081B0100081B010008E0
:100090001B0100081B0100081B0100081B010008D0
:1000A0001B0100081B0100081B0100081B010008C0
:1000B0001B0100081B0100081B0100081B010008B0
:1000C0001B0100081B0100081B0100081B010008A0
:1000D0001B0100081B0100081B0100081B01000890
:1000E0001B0100081B0100081B010008DFF80CD0F1
:1000F00000F0ECFB00480047B52F0008780800200E
:100100000648804706480047FEE7FEE7FEE7FEE7B1
:10011000FEE7FEE7FEE7FEE7FEE7FEE7A3240008B2
:10012000ED000008202A04DB203A21FA02F0002129
:10013000704721FA02F3D040C2F1200291400843F7
:1001400019467047D2B201E000F8012B491EFBD2DC
:1001500070470022F6E710B513460A4604461946D2
:10016000FFF7F0FF204610BD421C10F8011B0029CC
:10017000FBD1801A7047F0B480EA0102D40F42002C
:10018000B2EB410F02D20246084611464A0042D065
:10019000C30DDDB2C1F3C752AD1A202D35DAC1F35C
:1001A000160141F4000204B15242C5F1200602FAE0
:1001B00006F12A411044B3EBD05F23D0C4B1012D26
:1001C000A0EBC35009DCF0BC4FF0004202EAC3527E
:1001D000DBB200F5000000F0BEBA400000F1807014
:1001E00000EBC350A0F1807040EAD170490009E0F3
:1001F000490841EAC071A0EBC35000F50000400877
:1002000000EBC350F0BC00F09DBA6142012202EB4A
:100210004101001BF6E7F0BC704781F00041AAE7FE
:1002200080F00040A7E730B480EA010202F0004508
:1002300030F0004221F0004013D090B1C30DD40D36
:10024000C2F31601C0F31600E41A41F4000140F4B1
:1002500000027D34914201D3641C00E04900002C6F
:1002600002DA30BC002070474FF4000000239142B6
:1002700001D3891A034340084FEA4101F7D151B134
:10028000914202D14FF0004105E002D24FF001014E
:1002900001E06FF0010103EBC450284430BC00F0D2
:1002A00051BA2DE9FE4F804681EA0300C00F0C468B
:1002B000009021F0004123F00045B8EB0200A94175
:1002C00005D24046214690461C460B46024623F086
:1002D0000040104347D0270DC7F30A00C3F30A516B
:1002E0000290401A019040286BDAC3F3130040F4E7
:1002F000801B0098924620B10023D2EB030A63EBE7
:100300000B0B01985946C0F14002504600F0F9F934
:1003100006460D4650465946019A00F001FA10EB88
:1003200008006141002487EA115284EAE7731A4306
:1003300040D0009A62B3019A012A4FEA075215DCB5
:10034000001B61EB02014FF0004202EA0752CDE9C7
:100350000042001C41F5801132462B4600F038FA6D
:1003600003B0BDE8F08F40462146F9E7001B61EB82
:100370000201001C41F5801300185B412018A2F512
:10038000001747EB030140EAD570B6196D4111E043
:100390006D084FEA360645EAC0754FEA0752001B62
:1003A00061EB0201001C41F5801149084FEA300061
:1003B0000019514132462B4603B0BDE8F04F00F022
:1003C000F8B90098012240000023D0EB020263EB51
:1003D000E073009821464FEAE074B8EB000061EB4F
:1003E0000401E9E783F000435BE781F0004158E74F
:1003F0002DE9FE4F81EA030404F0004421F000419E
:1004000000944FF0000B23F0004350EA01045ED04B
:1004100052EA03045BD0C3F30A54C1F30A552C44D7
:10042000A4F2F3340194A0FB0254C1F3130141F48C
:100430008011C3F3130343F4801301FB024400FB58
:10044000034E840A970A44EA815447EA8357A4FB7F
:10045000076802958D0A05FB07854FEA932C04FB7C
:100460000C542705029D4FEA065847EA1637B5EBAC
:1004700008056EEB070C870E920E47EA811742EAD9
:100480008312A7FB0201B6EB0B0164EB00042B0DFA
:1004900043EA0C335E1844EB1C50DA465146E7FB46
:1004A0000201C5F313044FEA0B3343EA14534FEA36
:1004B0000432019C43EA0603A4F10C040294009C5C
:1004C000CDE900B400F084F903B0BDE8F08F00205E
:1004D0000146F9E72DE9F04D81EA030404F0004BF1
:1004E00021F0004514464FF0000A23F0004150EA85
:1004F000050220D054EA01021DD0C5F30A57024676
:10050000C5F31303C1F31300C1F30A5640F4801579
:1005100043F48013A7EB0608101BD64608F2FD38FB
:1005200073EB050002D308F1010801E092185B416A
:10053000B8F1000F03DA00200146BDE8F08D00207D
:100540004FF48011064684460EE0171B73EB050737
:1005500005D3121B63EB050306434CEA010C490863
:100560004FEA300092185B4150EA0107EDD152EAA0
:10057000030012D082EA040083EA0501084305D093
:10058000101BAB4106D20122002306E000224FF0EF
:10059000004302E06FF0010253101AEB06004CEB2F
:1005A000085110EB0A0041EB0B01BDE8F04D00F0E3
:1005B00000B970B521F0004303430CD0C1F30A55D4
:1005C0000024D5EB040564EB0403D617AD1AB34140
:1005D00002DB0020014670BD201841EB025170BDC6
:1005E00096230022114600F0B6B820F00040C20D5C
:1005F000C0F3160040F400007F2A02DA0020014612
:1006000070470021962A03DCC2F19602D040704761
:10061000963A00F076B800F0004230F000400AD080
:10062000C10D01F56071C0F3160042EA0151C20824
:1006300040071143704700200146704701F0004316
:1006400030B421F0004150EA010206D00A0DA2F5B3
:100650006072C1F31301002A02DC30BC0020704735
:10066000440F44EAC104C100E01830BC00EBC250A2
:1006700000F068B830B50B46014600202022012466
:1006800009E021FA02F59D4205D303FA02F5491B60
:1006900004FA02F52844151EA2F10102F1DC30BD76
:1006A0002DE9F05F0546002092469B4688460646A7
:1006B000814640241BE02846414647462246FFF734
:1006C00031FD53465A46C01A914110D3114618467F
:1006D000224600F016F82D1A67EB01084F46224615
:1006E0000120002100F00DF817EB00094E41201EFB
:1006F000A4F10104DFDC484631462A464346BDE802
:10070000F09F202A04DB203A00FA02F10020704713
:100710009140C2F1200320FA03F31943904070473F
:10072000202A06DBCB17203A41FA02F043EAE073B5
:1007300006E041FA02F3D040C2F1200291400843A2
:10074000194670470029A8BF7047401C490008BFE0
:1007500020F00100704710B4B0FA80FC00FA0CF0F1
:1007600050EA010404BF10BC704749B1CCF1200429
:1007700021FA04F411FA0CF118BF012121430843B6
:10078000A3EB0C01CB1D4FEA00614FEA102042BFE2
:10079000002010BC704700EBC35010440029A4BFD8
:1007A00010BC7047401C490008BF20F0010010BC7D
:1007B000704710B5141E73F1000408DA401C41F1B3
:1007C000000192185B411A4301D120F0010010BDD5
:1007D0002DE9F04D92469B4611B1B1FA81F202E04B
:1007E000B0FA80F220329046FFF78BFF04460F46A6
:1007F00040EA0A0041EA0B0153465A46084313D027
:10080000114653EA010019D0C8F140025046FFF7E3
:1008100089FC05460E46504659464246FFF771FF91
:10082000084305D0012004E020463946BDE8F08D9C
:100830000020054346EAE0762C4337430A986305D7
:10084000E40AA0EB08000022FD0A44EA47540A30FB
:1008500002D500200146E9E7010510196941DDE9EB
:10086000084500196941BDE8F04DA2E7C1F30A52FD
:10087000C1F3130140F2FF3341F480119A4202DACE
:1008800000200146704740F233439A42A2F23342BD
:1008900002DC5242FFF746BCFFF733BF30B5041EFF
:1008A00071F1000404DB4FF00044404264EB0101AD
:1008B000141E73F1000405DB1C464FF00043524246
:1008C00063EB0403994208BF904230BD064C074DCC
:1008D00006E0E06840F0010394E807009847103410
:1008E000AC42F6D3FFF706FC143D0008343D000887
:1008F00070B504462068816811F0010F24D081682A
:1009000021F00101816000F0D1FD0546206880687A
:1009100010F0010F18D000F0C9FD401B02280ED9BD
:100920002068806810F0010F09D0A06A40F0100024
:10093000A062E06A40F00100E062012070BD206822
:10094000806810F0010FE6D1002070BDF8B50446B4
:10095000002600962068816811F0010F28D1816877
:1009600041F001018160194819490068B0FBF1F0BC
:100970000090009828B10098401E00900098002830
:10098000F9D100F093FD05462068806810F0010F52
:100990000ED100F08BFD401B022804D9206880682E
:1009A00010F0010F06D02068806810F0010FF0D021
:1009B0000020F8BDA06A40F01000A062E06A40F09C
:1009C0000100E06284F824600120F8BD40000020AE
:1009D00040420F00FEE701F06BBA10B50368002239
:1009E0005A624FF47A7303E00268546A9C42FCD363
:1009F000491E89B2F8D210BD036800225A6200680D
:100A0000426A8A42FCD370470068FFF7E6BF00687D
:100A1000FFF7F2BF30B482608380016030BC0846CB
:100A2000FFF7D9BF2DE9F0410746002500F057F840
:100A300000240126384600F061F80021384600F015
:100A4000C0F801213846FFF7E2FF384600F047F8CA
:100A5000384600F00FF818B106FA04F02843C5B282
:100A600032213846FFF7D3FF641C082CE2DB28460E
:100A7000BDE8F0818188806800F00ABD70B5044649
:100A800000F04DF801212046FFF7BEFFCC212046A3
:100A900000F066F84421204600F062F8C8212046A4
:100AA000FFF7B2FF204600F03AF801212046FFF799
:100AB000ABFFCC21204600F053F8BE21204600F0C9
:100AC0004FF82046FFF7AEFF05462046FFF7AAFF86
:100AD00045EA00200009FFF783FDE06070BD1FB507
:100AE00000210091019102910391818800910121DF
:100AF00002918068694600F0D3FB1FBD1FB500213D
:100B0000009101910291039181880091012101914D
:100B1000022103918068694600F0C2FB1FBD70B5D9
:100B200005460024FFF7EAFF0021284600F049F8B7
:100B30004FF4F0712846FFF76AFF2846FFF7CFFF12
:100B400050212846FFF763FF2846FFF793FF00B9BF
:100B500001244FF4C8712846FFF759FF204670BDA5
:100B60002DE9F0410E460746FFF7C8FF0024012596
:100B700005FA04F03042384611D0FFF7BFFF0021DC
:100B8000384600F01EF801213846FFF740FF38468E
:100B9000FFF7A5FF32213846FFF739FF0CE0FFF7DA
:100BA000ADFF0021384600F00CF832213846FFF73F
:100BB0002EFF3846FFF793FF641C082CD8DBBDE8F6
:100BC000F08183880A468068194600F068BC704747
:100BD00030B585B00D46044600F04CFB0020291BC3
:100BE000890A02940090CDE9031004A9684600F038
:100BF00093FA00F0EBFA05B030BD00000649002082
:100C0000C8610648016941F004010161016941F0D0
:100C1000400101617047000058040020002002409C
:100C2000064A0021D16106490A6942F002020A61BE
:100C30004861086940F0400008617047580400208E
:100C400000200240044B0022DA61044A136943F099
:100C50000103136101807047580400200020024006
:100C600000201649CA6812F0100F154A04D0D06946
:100C700040F00200D0611020CB6813F0040F05D0C3
:100C8000D36943F00103D36140F00400CB6913F052
:100C9000010F07D0D36943F00403D361CA6922F07E
:100CA0000102CA61A0F58072013A01D0C8607047A4
:100CB000C86920F00100C8617047000000200240B0
:100CC0005804002070B5044600F0F0FB0646164DAF
:100CD000E86810F0010F0ED0B4F1FF3F07D024B147
:100CE00000F0E4FB801BA04201D9032070BDE8683E
:100CF00010F0010FF0D1E86810F0200F01D0202093
:100D0000E860E86810F0100F07D1E86910F0010FF3
:100D100003D1E86810F0040F03D0FFF7A1FF012012
:100D200070BD002070BD00000020024078B44FF07C
:100D3000000C0024009490F82420012A14D00122F1
:100D400080F824204A681F25072A10D203685E6BAA
:100D5000521E02EB8202954026EA05050E6806FA4D
:100D600002F22A435A631FE078BC022070470D2A22
:100D70000DD203681E6BD21F02EB8202954026EA59
:100D800005050E6806FA02F22A431A630CE00368AE
:100D9000DE6A0D3A02EB8202954026EA05050E68EE
:100DA00006FA02F22A43DA620A6807250A2A0DD3F4
:100DB0000368DE680A3A02EB4202954026EA05051E
:100DC0008E6806FA02F22A43DA600BE003681E69B5
:100DD00002EB4202954026EA05058E6806FA02F209
:100DE0002A431A610A68102A01D0112A0BD102681D
:100DF000A2F18043B3F592330AD0816A41F0200119
:100E000081624FF0010C80F8244078BC6046704746
:100E1000936813F4000FF6D1936843F400039360D2
:100E200009681029EFD10949094A0968B1FBF2F1B3
:100E300001EB81014900009100990029E3D000995C
:100E4000491E009100990029F9D1DCE740000020FB
:100E500040420F000068C06C704700002DE9F0416F
:100E6000044600270025002C03D0A06A002618B1F4
:100E700008E00120BDE8F081E66284F824602046A5
:100E800000F07EF82046FFF733FD0146A06A00F02F
:100E9000100252EA010007D0A06A40F01000A062E0
:100EA00001210846BDE8F081A06A20F4885040F096
:100EB0000200A062E2696068237B104347EA4302B4
:100EC0000243A068B0F5807F08D0012806D000203A
:100ED00094F814C0BCF1010F03D00BE04FF4807004
:100EE000F6E7F3B1A36A43F02003A362E36A43F099
:100EF0000103E3622368D3F804C02CF4694C4CEA84
:100F00000000586020688368DFF86CC003EA0C03B7
:100F100013438360A068B0F5807F09D0012807D013
:100F200009E0A3695B1E40EA433040F40060E1E75A
:100F3000208A401E05052068C36A23F470032B43F2
:100F4000C362206880680D4B1840904207D1E6626A
:100F5000A06A20F0020040F00100A062A1E7A06AB0
:100F600020F0020040F01000A062E06A40F00100B2
:100F7000E062012195E70000FDF7E1FFFE0E1FFF93
:100F800000B585B0002100910191029103910068A4
:100F90000E49884218D10E48816941F4007181617F
:100FA000816901F400710491816941F0040181615A
:100FB0008069694600F0040004902020009003201E
:100FC0000190044800F06CF905B000BD0024014018
:100FD000001002400008014070B5044694F8240057
:100FE00001280DD0012084F824002046FFF7AEFC34
:100FF00002464FF0000C2AB184F824C0104670BDA0
:10100000022070BDA06A20F0010020F4007040F4BE
:101010008070A062274B2068274998421AD10D683A
:1010200015F4702F16D0A56A45F48015A5620D68D9
:1010300015F4806F05D0A56A25F4005545F4805558
:10104000A562A56A15F4805F13D0E56A25F0060550
:10105000E56210E0A56A25F48015A562456815F4DF
:10106000806FEED0A56A25F4005545F48055A56241
:10107000E7E7C4F82CC084F824C06FF0020CC0F875
:1010800000C02068D0F808C04FF4602434EA0C0C8B
:1010900005D1984208D1096811F4702F04D08168F5
:1010A00041F480118160A9E7816841F4A001816069
:1010B000A4E70000002801400424014010B50446C4
:1010C00094F82400012807D0012084F82400204649
:1010D000FFF70EFC10B107E0022010BDA16A21F459
:1010E000885141F00101A162002184F8241010BD53
:1010F00070B5044600F0DAF90546B4F1FF3F02D0BE
:1011000004480078044400F0D1F9401BA042FAD30F
:1011100070BD0000340000202DE9F04705460F4661
:101120004FF00109DFF89C8098F8180001280CD0D6
:10113000012088F818002868234E022808D04CF2B5
:101140005030FFF7BFFDA8B136E00220BDE8F087C0
:101150004CF25030FFF7B6FD28BB0120FFF74EFDE3
:101160004CF25030FFF7AEFD8146306920F00400AC
:10117000306121E04FF0FF303860AC68E86804EB84
:101180008020A04218D92046FFF74AFD4CF250308B
:10119000FFF798FD8146306920F0020030615FEA78
:1011A000090001D03C6007E004F58064E968A868A4
:1011B00000EB8120A042E6D8002088F818004846BD
:1011C000BDE8F08758040020002002400348016970
:1011D00041F08001016100207047000000200240C2
:1011E0002DE9F0470746884615461E460024DFF8DD
:1011F0007C9099F81800012808D0012089F818007F
:101200004CF25030FFF75EFD18B129E00220BDE836
:10121000F087012F1CD0022F1CD00427002F1FD9CC
:10122000DFF84CA0220128463146FEF77BFF81B251
:1012300008EB4400FFF706FD4CF25030FFF742FD8B
:10124000DAF8101021F00101CAF8101040B903E0DB
:101250000127E3E70227E1E7611CCCB2BC42E1D3FE
:10126000002189F81810BDE8F0870000580400201C
:1012700000200240002007490A6912F0800F08D0C0
:10128000054A4A60054A4A60096911F0800F00D09A
:10129000012070470020024023016745AB89EFCD54
:1012A0002DE9F84F4FF0000C00230A68002A7DD08A
:1012B000DFF8D0810F2708F1040909F1040A0AF1C7
:1012C000040B012202FA0CF60A683240B2426ED1D7
:1012D000DFF8B4E14C68A4EB0E0574452BD00DDCAF
:1012E000032C34D005DC34B3012C19D0022C2FD1BF
:1012F0001BE0112C16D0122C2AD119E0B5F5881F4D
:1013000019D006DCB5F5803F15D0B5F5801F1FD18B
:1013100011E0B5F5001F0ED0B5F5041F18D10AE095
:10132000CB6815E0CB681B1D12E0CB6808330FE0DB
:10133000CB680C330CE08B6823B1012B04D008235D
:10134000466105E0042303E00823066100E0002372
:10135000B2F5807F01D2054601E000F1040502D21A
:101360004FEA8C0403E0ACF108044FEA84042E68D1
:1013700007FA04FE26EA0E0603FA04F446EA040419
:101380002C604C6814F0805F73D0404CA56945F028
:101390000105A561A46904F0010400942CF0030484
:1013A00004F1804404F58034A66801E068E060E060
:1013B0004FEA8C754FEA157507FA05FE26EA0E0E00
:1013C000A0F18046B6F5843618D0B6F5806617D001
:1013D000B6F5806616D0B6F5806615D0042606FAF6
:1013E00005F545EA0E05A5604C6814F4803F0DD064
:1013F000D8F800401443C8F800400CE00026EEE79F
:101400000126ECE70226EAE70326E8E7D8F80040E1
:101410009443C8F800404C6814F4003F05D0D9F854
:1014200000401443C9F8004004E0D9F80040944358
:10143000C9F800404C6814F4801F05D0DAF8004069
:101440001443CAF8004004E0DAF800409443CAF8B4
:1014500000404C6814F4001F05D0DBF80040224324
:10146000CBF8002005E0DBF8004024EA0202CBF8CC
:1014700000200CF1010C0A6832FA0CF27FF421AF63
:10148000BDE8F88F00040140000011100010024078
:101490008068084201D00120704700207047002A70
:1014A00001D00161704709040161704701488068FB
:1014B000704700003400002002488168027811441F
:1014C000816070473400002010B50748016841F082
:1014D00010010160032000F07DF8002000F006F804
:1014E00000F026F8002010BD0020024070B5044630
:1014F0000D4D4FF47A712878B1FBF0F00B49096873
:10150000B1FBF0F000F048FC08B1012070BD102CD8
:1015100007D200222146501E00F028F86C600020FF
:1015200070BD012070BD000034000020400000208C
:101530000C4808B5816941F001018161816901F0C0
:1015400001010091C16941F08051C161C06900F0A1
:10155000805000900448416821F0E06141F0007142
:10156000416008BD001002400000014010B4184B5B
:101570001B68C3F30223C3F1070CBCF1040F01D9AC
:101580004FF0040C1C1D072C01D2002300E0DB1ED1
:10159000012404FA0CFCACF1010C0CEA01019940A5
:1015A00004FA03F35B1E1A401143002806DB00F126
:1015B000E020090180F8001410BC704700F00F0013
:1015C00000F1E020090180F8141D10BC70470000F4
:1015D0000CED00E000F00700064A11684FF6FF032B
:1015E000194041EA002040F0FD7040F0806010603A
:1015F000704700000CED00E02DE9F8430446DFF8E9
:101600001C81207810F0010F6CD00027D8F81C0046
:1016100010F0805F0BD1D8F81C0040F08050C8F863
:101620001C00D8F81C0000F08050009001273C4DB1
:10163000286810F4807F16D1286840F480702860F4
:10164000FFF734FF0646286810F4807F0BD1FFF7C0
:101650002DFF801B642802D90320BDE8F883286889
:1016600010F4807FF3D0D8F8200000F4407048B325
:10167000A18801F44071814224D0D8F8200020F4E0
:101680004070284901220A6000220A60C8F8200040
:1016900010F0010F16D0FFF709FF0546D8F820001B
:1016A00010F0020F0ED141F28836FFF7FFFE401B0B
:1016B000B04202D90320BDE8F883D8F8200010F02A
:1016C000020FF2D0D8F82000616820F4407008437F
:1016D000C8F82000012F05D1D8F81C0020F0805058
:1016E000C8F81C00207810F0020F07D0D8F80400CA
:1016F000A16820F440400843C8F80400207810F0A6
:10170000100F07D0D8F80400E16820F480000843E7
:10171000C8F804000020BDE8F88300000010024073
:1017200000700040400442422DE9F04704460D4657
:10173000002C17D0DFF85C81D8F8000000F007001B
:10174000A84212D2D8F8000020F007002843C8F8B9
:101750000000D8F8000000F00700A84205D00120E2
:10176000BDE8F0870120BDE8F08720684A4E10F000
:10177000020F14D010F0040F03D0706840F4E06042
:101780007060207810F0080F03D0706840F460504B
:101790007060706820F0F001A068084370602078E5
:1017A00010F0010F3AD06068012806D002280BD053
:1017B000316811F0020F27D00AE0316811F4003FC0
:1017C00006D10120BDE8F087316811F0007F18D004
:1017D000716821F0030108437060FFF767FE074658
:1017E0007068616800F00C00B0EB810F16D041F218
:1017F0008839FFF75BFEC01B484508D90320BDE8C8
:10180000F0870120BDE8F0870120BDE8F08770680F
:10181000616800F00C00B0EB810FEAD1D8F800004D
:1018200000F00700A8420FD9D8F8000020F0070008
:101830002843C8F80000D8F8000000F00700A842CC
:1018400002D00120BDE8F087207810F0040F05D009
:101850007068E16820F4E06008437060207810F060
:10186000080F06D07068216920F4605040EAC1007A
:10187000706000F03FF87168084AC1F30311515CD1
:10188000C8400749086007480068FFF72FFE00209E
:10189000BDE8F0870020024000100240003C000834
:1018A0004000002038000020014800687047000018
:1018B0004000002000B5FFF7F7FF04494968044ADB
:1018C000C1F30221515CC84000BD0000001002407D
:1018D000103C000800B5FFF7E7FF04494968044AD7
:1018E000C1F3C221515CC84000BD0000001002409D
:1018F000103C000885B015A0836842680168C06884
:10190000039302920191049014A000680090144B7C
:101910005968144801F00C02042A11D0082A0FD18A
:1019200001A8C1F38342805C11F4803F0AD059685A
:10193000C1F340411DF801100A4A5043B0FBF1F0D9
:1019400005B07047084905B04843704702030405D5
:10195000060708090A0B0C0D0E0F101001020000FB
:101960000010024000127A0000093D002DE9F84FF6
:101970000446002C0FD02078F84D10F0010F6CD0E9
:10198000686800F00C0004280CD0686800F00C00B7
:10199000082803D010E00120BDE8F88F686810F433
:1019A000803F09D0286810F4003F56D060680028B6
:1019B00053D10120BDE8F88F6068B0F5803F15D0A5
:1019C000C8B1B0F5A02F1FD0286820F4803028605F
:1019D000286820F480202860606858B3FFF766FD0F
:1019E0000646286810F4003F17D036E0286840F417
:1019F00080302860F0E7286820F48030286028686C
:101A000020F480202860E7E7286840F480202860E0
:101A1000286840F480302860DEE7FFF747FD801B30
:101A2000642802D90320BDE8F88F286810F4003F2D
:101A3000F3D012E0FFF73AFD0646286810F4003FA5
:101A40000BD0FFF733FD801B642802D90320BDE8CB
:101A5000F88F286810F4003FF3D12078C04F10F0C1
:101A6000020F4FF0010B4FF0000854D0686810F0DF
:101A70000C0F14D0686800F00C00082803D16868C7
:101A800010F4803F0BD0206978B3C7F800B0FFF79F
:101A90000DFD0646286810F0020F12D01DE02868E0
:101AA00010F0020F05D02069012802D00120BDE806
:101AB000F88F2868616920F0F80040EAC1002860CA
:101AC00029E0FFF7F3FC801B022802D90320BDE8C0
:101AD000F88F286810F0020FF3D02868616920F0B1
:101AE000F80040EAC100286015E0FFE7C7F8008071
:101AF000FFF7DCFC0646286810F0020F0BD0FFF75A
:101B0000D5FC801B022802D90320BDE8F88F286885
:101B100010F0020FF3D1207810F0080F30D0914868
:101B2000A169C1B1C0F800B0FFF7C0FC0646686A01
:101B300010F0020F0BD1FFF7B9FC801B022802D96D
:101B40000320BDE8F88F686A10F0020FF3D001207F
:101B500000F056FC14E0C0F80080FFF7A7FC064632
:101B6000686A10F0020F0BD0FFF7A0FC801B022860
:101B700002D90320BDE8F88F686A10F0020FF3D194
:101B8000207810F0040F6FD00026E86910F0805F15
:101B900008D1E86940F08050E861E86900F08050C1
:101BA00000900126DFF8C0A1DAF8000010F4807F71
:101BB0001BD1DAF8000040F48070CAF80000FFF78B
:101BC00075FC8146DAF8000010F4807F0DD1FFF734
:101BD0006DFCA0EB0900642802D90320BDE8F88F52
:101BE000DAF8000010F4807FF1D0E068012816D008
:101BF000D0B1052821D0286A20F001002862286A87
:101C000020F004002862E06841F2883A68B3FFF7E8
:101C10004DFC8146286A10F0020F17D03AE0286A7E
:101C200040F001002862EEE7286A20F001002862F7
:101C3000286A20F004002862E5E7286A40F00400E2
:101C40002862286A40F001002862DCE7FFF72EFCDA
:101C5000A0EB0900504502D90320BDE8F88F286A9F
:101C600010F0020FF2D015E01AE0FFE7FFF71EFCBC
:101C70008146286A10F0020F0CD0FFF717FCA0EB8A
:101C80000900504502D90320BDE8F88F286A10F0FA
:101C9000020FF2D1012E03D1E86920F08050E861F3
:101CA000E069E8B3696801F00C0108295ED00228F8
:101CB00010D0C7F86080FFF7F9FB0446286810F0E1
:101CC000007F66D0FFF7F2FB001B022841D90320FA
:101CD000BDE8F88FC7F86080FFF7E8FB0646286884
:101CE00010F0007F0BD0FFF7E1FB801B022802D928
:101CF0000320BDE8F88F286810F0007FF3D1206A38
:101D0000B0F5803F05D16868A16820F40030084331
:101D10006860616A206A0843696821F4741100E010
:101D200037E008436860C7F860B0FFF7BFFB0446C0
:101D3000286810F0007F2CD1FFF7B8FB001B0228A9
:101D400002D90320BDE8F88F286810F0007FF3D097
:101D50001FE0286810F0007FB4D11AE000100240A4
:101D600000004242800442420070004001280DD031
:101D70006868226A00F48031914204D1616A00F4FB
:101D80007010884205D00120BDE8F88F0120BDE821
:101D9000F88F0020BDE8F88F401EB0F1807F01D39E
:101DA000012070474FF0E0214861044AF020107094
:101DB00000208861072008610020704723ED00E0C3
:101DC00030B490F83C20012A2CD0012480F83C400B
:101DD000022280F83D200268D2F804C093682CF0FB
:101DE000700C0D6845EA0C0CC2F804C00268A2F140
:101DF000804CBCF5963C08D0B2F1804F05D01CF564
:101E0000943C02D0BCF5806C04D123F08003496877
:101E10001943916080F83D40002180F83C1030BCAF
:101E20000020704730BC0220704710B50446002CDB
:101E300003D094F83D0010B107E0012010BD002050
:101E400084F83C00204600F01FF8022084F83D0092
:101E5000211D206800F026FB012084F8460084F84C
:101E60003E0084F83F0084F8400084F8410084F884
:101E7000420084F8430084F8440084F8450084F864
:101E80003D00002010BD000008B5006806498842EA
:101E900008D10648C16941F00401C161C06900F080
:101EA0000400009008BD000000080040001002403F
:101EB00090F83D10012901D001207047022180F8DF
:101EC0003D100068A0F18041B1F596310ED0B0F11F
:101ED000804F0BD011F5943108D0B1F5806105D059
:101EE000016841F00101016000207047816801F044
:101EF00007010629F8D0016841F001010160F3E70C
:101F000070B5044694F83C00012818D0012584F8E7
:101F10003C50022084F83D002068826822F077025D
:101F200022F47F4282600868502832D00EDC2028DC
:101F30004DD006DC00284AD010284DD147E00220C1
:101F400070BD302843D0402846D136E060282AD0E2
:101F5000702806D0B0F5805F3ED0B0F5005F3BD171
:101F60000BE0CB684A688968206800F0D7FA2068DF
:101F7000816841F0770181602EE0CB684A6889680A
:101F8000206800F0CBFA2068816841F480418160CC
:101F900022E0CA684968206800F0D3FA502120681E
:101FA00000F0C7FA18E0CA684968206800F0DCFA57
:101FB0006021206800F0BDFA0EE0CA684968206818
:101FC00000F0BFFA4021206800F0B3FA04E0226874
:101FD0000146104600F0ADFA84F83D50002084F828
:101FE0003C0070BD70B50446002C04D094F83D0050
:101FF000002510B106E0012070BD84F83C50204659
:1020000000F022F8242084F83D002068C16821F403
:102010000051C160204600F0B9FA2068016921F43E
:10202000904101612068416921F02A0141612068E5
:10203000C16841F40051C1602564202084F83D004E
:1020400084F83E00002070BD30B585B000240094B7
:1020500001940294039400681449884224D11448DE
:10206000816941F480418161816901F48041049179
:10207000816941F00401816180690E4D00F0040026
:1020800004904FF400700090022001900320039010
:1020900069462846FFF704F92815CDE9000469468A
:1020A00028460294FFF7FCF805B030BD0038014027
:1020B00000100240000801402DE9F84304460E4696
:1020C00015461F4694F83E00202802D00220BDE8A5
:1020D000F883D6B1CDB194F83C00012818D0012086
:1020E00084F83C004FF00009C4F84090222084F8A6
:1020F0003E00C4F83090FFF7D9F98046A585E58504
:10210000A068B0F5805F06D007E00120BDE8F88345
:102110000220BDE8F883206980B13546002684F8A6
:102120003C90E08D40B3434600222021204600979A
:1021300000F090FA20B10320BDE8F8830025EEE717
:102140002DB1A068B0F5805F1CD038B108E02068E0
:102150004068C0F308003080B61C07E0206988B1F1
:102160002068406800F07F0028706D1CE08D401EE4
:10217000E085E08D0028D6D1202084F83E000020A4
:10218000BDE8F883206840682870EEE72DE9F84341
:1021900004460E4615461F4694F83D00202802D0FE
:1021A0000220BDE8F883C6B1BDB194F83C00012817
:1021B00016D0012084F83C004FF00009C4F840908C
:1021C000212084F83D00FFF771F98046A584E5845D
:1021D000A068B0F5805F06D007E00120BDE8F88375
:1021E0000220BDE8F883206980B13546002684F8D6
:1021F0003C90E08CB8B143460022802120460097F5
:1022000000F028FA20B10320BDE8F8830025EEE7AE
:10221000A5B12168287848606D1CE08C401EE084E0
:10222000E08C0028E7D14346002240212046009759
:1022300000F010FA48B10320BDE8F8833088216827
:10224000C0F308004860B61CE7E7202084F83D0092
:102250000020BDE8F883FEE73EB50021114800915B
:1022600001910F4A0291026081600173017501249E
:102270004FF460220461C2614160FEF7EFFD08B1D6
:1022800072B6FEE70520CDE90004072002906946FA
:102290000448FEF74BFD002801D072B6FEE73EBDB4
:1022A00000240140380300202DE9F04786B00024C7
:1022B00033480094019402940394816941F0100121
:1022C0008161816901F010010491816941F020016F
:1022D0008161816901F020010491816941F004016B
:1022E0008161816901F004010491816941F0080173
:1022F00081618069DFF88C8000F008004FF40055A0
:102300000490002229464046FFF7C9F8DFF878908C
:10231000002202214846FFF7C2F800220121484668
:10232000FFF7BDF8DFF864A0AF0000223946504641
:10233000FFF7B5F80095022601250396CDE9015473
:1023400069464046FEF7ACFFCDE90065CDE902469F
:1023500069464846FEF7A4FF03960095CDE901546F
:1023600069464846FEF79CFF00970396CDE9015465
:1023700069465046FEF794FF06B0BDE8F0870000BE
:10238000001002400010014000080140000C014014
:1023900010B586B000241748009401940294039469
:1023A00004941349059401604721C0E901144FF6D4
:1023B000FF71C0E903148461FFF737FD08B172B6FD
:1023C000FEE74FF48050009069460A48FFF798FDF9
:1023D00008B172B6FEE7049404A906480594FFF715
:1023E000EFFC002801D072B6FEE706B010BD000079
:1023F0000008004068030020FEE7FEE77047000089
:1024000081B007494FF4FA520968B1FBF2F1484331
:10241000009000BF0098411E0091FAD201B07047B1
:10242000400000207047FFF747B830B593B028212F
:102430006846FDF78EFE14210AA8FDF78AFE0025E6
:1024400001200F9510951195010412958DE8230038
:1024500004904FF4E010CDE9081002240794684678
:10246000FFF784FA08B172B6FEE70AA90F2081E8E7
:1024700031004FF48060CDE90D0502210AA8FFF775
:1024800053F908B172B6FEE74FF4404011900F9433
:102490000FA8FFF7B1F8002801D072B6FEE713B01D
:1024A00030BD704730B40268194B1A4CDFF868C071
:1024B000984206D0B0F1804F03D0A04201D06045D1
:1024C00003D122F070024D682A43984206D0B0F141
:1024D000804F03D0A04201D0604505D122F4407264
:1024E000D1F80CC04CEA0202D1F814C022F08002EC
:1024F00042EA0C0202608A68C2620A6882629842FA
:1025000001D1096901630121416130BC70470000BC
:10251000002C01400004004000080040D0F808C032
:102520002CF47F4C42EA0322114341EA0C01816002
:102530007047826822F07002114341F00701816008
:102540007047036AD0F820C02CF0010CC0F820C0FE
:10255000D0F818C02CF0F00C4CEA021223F00A0359
:102560001943826101627047036A23F0100303621A
:10257000D0F818C0036A2CF4704C4CEA023223F0F5
:10258000A00343EA011182610162704770B50446FD
:1025900020680169E26821F4405111430161216919
:1025A000A0680843616901432068C26822F403728D
:1025B00022F4A0521143C16020684169A26921F44C
:1025C0004071114341612068A0F18041B1F59C3117
:1025D0003AD0FFF76FF900EBC00101EB0010616822
:1025E0001B4A8900B0FBF1F3A2FB0353B0FBF1FCE3
:1025F0005B096FF018056B430CEB83034FF0320C53
:102600000CEB0313A2FB03535B0903F0F005B0FBD3
:10261000F1F3A2FB03635B0905EB0313B0FBF1F5D8
:10262000B0FBF1F0A2FB001040096FF01801484325
:1026300005EB80000CEB0010A2FB00102168C0F33A
:1026400043101844886070BDFFF744F9C3E70000E9
:102650001F85EB512DE9F0410446069D884617463B
:102660001E462068006838EA000020D00020B842EA
:1026700027D1B5F1FF3F1CD025B1FEF717FF801B16
:10268000A84216D92068C16821F4D071C1602068C1
:10269000416921F001014161202084F83D0084F866
:1026A0003E00002084F83C000320BDE8F0810120BA
:1026B000DDE72068006838EA000005D00020B84255
:1026C000D7D00020BDE8F0810120F8E7FEE7000048
:1026D0000FB4084B10B504A902AA039800F0CEF875
:1026E000044602A9002000F060FC204610BC5DF802
:1026F00014FB0000AB2F000802E008C8121F08C13D
:10270000002AFAD170477047002001E001C1121F72
:10271000002AFBD1704700002DE9FF5FDDE90220B0
:10272000010DDDF838B0024318D044F61050A1F284
:10273000FF3141430D140F98012820D0A5EB0B0069
:10274000401C5FEA000A4FF00004474EDFF81C917E
:10275000A046504616D5CAF1000728E00F9801247C
:1027600043A2012808D0002100980F9BC0E9002156
:10277000C0E90243BDE8FF9F6FEA0B01F4E7CBF12C
:102780000000DEE7074612E0F80707D0224633468E
:1027900040464946FDF72CFE804689462246334690
:1027A00010461946FDF724FE04460E467F10002F02
:1027B000EAD1DDE90201BAF1000F42464B4602DAE6
:1027C000FDF716FE01E0FDF785FE04460E460022E9
:1027D000284BFEF763F803D84FF0FF30014607E0BF
:1027E0000022254B20463146FDF75BFDFEF73EF803
:1027F000102409E0002C0ADB0A220023FDF750FF19
:10280000019B30321A55641E50EA0102F2D1641C59
:10281000019AC4F1110314440F9A012A03D0012232
:1028200008430DD10AE0084304D000204FF0110BFB
:102830000F9080E7A3EB0B056D1E0DE05B4504DDFB
:102840004FF0000205F1010504E003DA4FF0000249
:10285000A5F10105002AECD000980F99C0E90231DA
:10286000C0E9004586E70000000024400000F03F7A
:10287000300000000000F0430000E03F2DE9FF4F72
:1028800095B09B468946064600250FE2252877D15C
:1028900000242746F84A0121059400E0044316F875
:1028A000013F203B01FA03F01042F7D130782A288B
:1028B00011D06FF02F033078A0F13002092A16D81A
:1028C000059A44F0020402EB820203EB4202104438
:1028D000761C0590EFE759F8042B0592002A03DADD
:1028E000504244F40054059044F00204761C3078C1
:1028F0002E2816D116F8010F44F004042A280DD012
:102900006FF02F023078A0F13003092B09D807EBC4
:10291000870302EB4303C718761CF3E759F8047BDF
:10292000761C30786C280FD006DC4C2817D068282D
:102930000DD06A2814D104E0742810D07A280FD161
:102940000DE044F400140AE044F4801401E044F47F
:1029500040147278824202D104F58014761C761CF1
:10296000307866280BD013DC582877D009DC002893
:1029700075D04528F6D04628F4D047281AD19DE1D5
:1029800018E0632835D0642879D0652812D195E104
:10299000702873D008DC6728F1D069286FD06E28C2
:1029A0000DD06F2806D1B5E073282CD0752875D0CE
:1029B000782874D05A46179990476D1C75E1C4F376
:1029C0000250022809D003280DD0D9F8001004289D
:1029D0000DD00D6009F1040967E1D9F80010EA177C
:1029E000C1E90052F6E7D9F800100D80F2E70D704A
:1029F000F0E719F8041B8DF8001000208DF8010095
:102A0000EA46012003E059F804AB4FF0FF306107BC
:102A10004FF0000102D40DE008F101018846B942EF
:102A20000FDA8045F8DB1AF808100029F4D108E025
:102A300008F1010188468142FADB1AF808100029E2
:102A4000F6D105985B46A0EB080721463846179A51
:102A500000F094FA284400EB080507E04DE029E176
:102A60000DE01AF8010B5A4617999047B8F1010882
:102A7000F7D25B4621463846179A13E142E00A2214
:102A80000092C4F302524FF0000A022A08D059F80B
:102A900004CB032A4FEAEC710AD00DE029E02AE0CA
:102AA00009F1070121F00702F2E802C1914609E0AD
:102AB0000FFA8CFC4FEAEC71042A03D14FFA8CFC1C
:102AC0004FEAEC71002907DA0A460021DCF1000C1C
:102AD00061EB02012D2202E0220504D52B228DF8A4
:102AE0000420012203E0E20701D02022F7E790460C
:102AF00059E00A2102E010220DE010214FF0000AF7
:102B000000910BE010224FF0000A44F00404082763
:102B1000009203E008224FF0000A0092C4F3025230
:102B2000022A05D059F804CB0021032A08D009E075
:102B300009F1070121F00702F2E802C1914605E020
:102B40001FFA8CFC042A01D10CF0FF0C4FF0000896
:102B5000220728D5702806D0009B83F0100353EA83
:102B60000A0305D00EE040228DF80420012208E07F
:102B70005CEA010206D030228DF804208DF80500B1
:102B800002229046009B83F0080353EA0A030AD10D
:102B90005CEA010201D1620705D530228DF80420DC
:102BA0004FF001087F1E582804D034A003900EA8CF
:102BB00002900DE036A0F9E753466046009AFDF713
:102BC0006FFD84460398825C0298401E029002705A
:102BD0005CEA0100F0D1029806A9081A00F1200A67
:102BE000600702D524F4803400E00127574502DD58
:102BF000A7EB0A0000E0002000EB0A010090059816
:102C00004144401A0590E00306D45B462146179ADA
:102C1000059800F0B3F90544002706E001A85A46DC
:102C2000C05D179990476D1C7F1C4745F6DBE0039C
:102C30000CD55B462146179A059800F09FF905448C
:102C400004E030205A46179990476D1C0099481EA1
:102C500000900029F5DC08E0029802995A460078B5
:102C6000491C0291179990476D1CBAF10001AAF115
:102C7000010AF1DC65E1000009280100303132333E
:102C800034353637383961626364656600000000A8
:102C90003031323334353637383941424344454692
:102CA0000000000000F058F90544761C3078002838
:102CB0007FF4ECAD19B02846BDE8F08F620700D470
:102CC000062709F1070222F0070CFCE80223E1467F
:102CD00003F000485FEA080C02D00FF2702C0DE000
:102CE0005FEA045C02D50FF2682C07E05FEAC47C5F
:102CF00002D00FF2602C01E0AFF2700C4FF0FF3801
:102D000023F00043CDF850C065280CD006DC4528E0
:102D100009D046281DD047283DD13DE0662818D06F
:102D200067287ED138E00021112F01DB112000E05F
:102D3000781CCDE9000106A90EA8FFF7EDFCDDE93E
:102D40000F010E9A03910021009207F1010A0491EC
:102D50004DE04FF000400097CDE9011006A90EA804
:102D6000FFF7DAFCDDE90F0203920E9B11990022B6
:102D7000DDF80CA00093049211B9791C00EB010A54
:102D8000B7EB0A0004D4C0F1FF3007F1010A049048
:102D9000AAEB0700019044E0012F00DA012700218F
:102DA000112F01DD112000E03846CDE9000106A910
:102DB0000EA8FFF7B1FCDDE90F010E9A0391002187
:102DC00004910092BA4621070CD40399514500DAC8
:102DD0008A46BAF1010F05DD009AAAF10101515CA2
:102DE000302908D0B84202DA10F1040F06DA0121C6
:102DF000CDE9011015E0AAF10101E9E7002805DCA1
:102E0000049901440491AAEB000102E0411C5145E0
:102E100000DD8A460499401A401C01904FF00040A2
:102E20000290200704D40198504501DBCDF80480BE
:102E300000208DF84F0002980DF14F07B0F1004FC0
:102E400025D02B200E9002984FF0020800280CDAB3
:102E5000404202902D200E9007E00A210298FDF7D3
:102E600009FC3031029007F8011DB8F10001A8F10A
:102E70000108F2DC02980028EFD1791E0E98087044
:102E8000307800F0200040F0450007F8020D12A84D
:102E9000C01B00F107081498007800B1012000EB76
:102EA0000A01019801EBE07105984144401A401E67
:102EB0000590E00306D45B462146179A059800F07A
:102EC0005DF805441498007818B15A461799904750
:102ED0006D1CE00324D55B462146179A059800F047
:102EE0004DF805441CE00498002807DBDDE90301E8
:102EF000884203DD0098405C179901E01799302063
:102F00005A469047049805F10105401C0490019829
:102F1000401E019004D12E205A46179990476D1CEF
:102F2000BAF10001AAF1010ADDDC05E017F8010B96
:102F30005A46179990476D1CB8F10001A8F1010895
:102F4000F4DC5B462146179A0598ABE62D0000009D
:102F50002B000000200000002DE9F0410446002570
:102F60001E461746880404D405E039462020B047A1
:102F70006D1C641EF9D52846BDE8F0812DE9F041AD
:102F8000044600251E469046C80301D5302700E0C0
:102F90002027880404D505E041463846B0476D1C1B
:102FA000641EF9D52846BDE8F0810A68531C0B6001
:102FB000107070471CB5FEF787FAFFF736FAFFF777
:102FC00073F9FFF749F9FF48FD490C2201604FF4FE
:102FD0001651416000218160C160C0E90412816125
:102FE000C161FEF7FFFF08B172B6FEE7FFF7D0F947
:102FF000F549F648FDF7ECFDF2494FF40043483936
:10300000F34AA1F14000FDF705FDDFF8C883D8E0E1
:103010006421F148FDF79DF8EA4864214430FDF74A
:1030200098F8E848EDA14430FFF752FBE5484430FA
:10303000FDF79AF8E34982B24FF47A74234644319B
:10304000E048FFF7A3F823460122E349DD48FFF7F4
:1030500033F80028DBD12046FEF74AF86421DE4829
:10306000FDF777F8D74864214430FDF772F8D5486A
:10307000DCA14430FFF72CFBD2484430FDF774F854
:10308000D04982B223464431CE48FFF77FF8234629
:103090000122D149CB48FFF70FF80028B7D12046CD
:1030A000FEF726F86421CC48FDF753F8C5486421A3
:1030B0004430FDF74EF8C348CDA14430FFF708FB7C
:1030C000C0484430FDF750F8BE4982B2234644312F
:1030D000BC48FFF75BF823460122BF49B948FEF719
:1030E000EBFF00286DD12046FEF702F86421BA48B4
:1030F000FDF72FF8B34864214430FDF72AF8B148B2
:10310000C3A14430FFF7E4FAAE484430FDF72CF891
:10311000AC4982B223464431AA48FFF737F8234628
:103120000122AD49A748FEF7C7FF002849D1204634
:10313000FDF7DEFF6421A848FDF70BF8A1486421E4
:103140004430FDF706F89F48BAA14430FFF7C0FAB3
:103150009C484430FDF708F89A4982B2234644312E
:103160009848FFF713F8234601229B499548FEF73C
:10317000A3FF30BB2046FDF7BBFF64219648FCF758
:10318000E8FF904864214430FCF7E3FF8D48ADA18F
:103190004430FFF79DFA8B484430FCF7E5FF89493E
:1031A00082B2234644318748FEF7F0FF23460122CE
:1031B00089498448FEF780FF18B9012088F800008B
:1031C00004E098F8000000283FF422AF4FF47A7A28
:1031D0005046FDF78DFF00267A4FDFF87892DFF832
:1031E00078B23446B03FC8F8306076488838FDF78A
:1031F00045FC054647F824002946D8F83000FCF77E
:10320000BAFFC8F830004D4501DC5D4500D3641EAF
:103210006420FDF76DFF641C0A2CE6DB8F49D8F8AB
:103220003000FDF700F8C8F830004FF4FA60FDF701
:103230005FFF64216848FCF78CFF624864214430DA
:10324000FCF787FF5F4886A14430FFF741FA5D48ED
:103250004430FCF789FF5B4982B2544653464431FF
:103260005848FEF793FF234601225B495548FEF775
:1032700023FF00287DD12046FDF73AFF6421564800
:10328000FCF767FF4F4864214430FCF762FF4D486C
:1032900077A14430FFF71CFA4A484430FCF764FF3A
:1032A000484982B2234644314648FEF76FFF234621
:1032B000012249494348FEF7FFFE00286FD120460E
:1032C000FDF716FF64214448FCF743FF3D486421A5
:1032D0004430FCF73EFFD8F83000FDF79CF9024679
:1032E00038480B4668494430FFF7F2F93548443016
:1032F000FCF73AFF334982B2234644313148FEF7A6
:1033000045FF4FF4FA652B46012233492D48FEF75D
:10331000D3FE70BB2846FDF7EBFE64212E48FCF778
:1033200018FF284864214430FCF713FF254857A1B3
:103330004430FFF7CDF923484430FCF715FF21490D
:1033400082B2234644311F48FEF720FF2B4601225C
:1033500021491C48FEF7B0FE58B940F6B830FDF7D9
:10336000C7FE64211C48FCF7F4FE16486421443073
:1033700000E014E0FCF7EDFE124849A14430FFF7ED
:10338000A7F910484430FCF7EFFE0E4982B22346FD
:1033900044310C48FEF7FAFE2046FDF7A9FE41F243
:1033A0008830FDF7A5FEB146C8F80460404E474698
:1033B000002504487838FDF70FFE3C207AE0000035
:1033C00000380140B00300200000020800B00108EE
:1033D000000C0140000000204400002041540D0A70
:1033E0000000000041542B4346554E3A310D0A006F
:1033F00041542B53415042523D332C312C22436FC8
:103400006E74797065222C2247505253220D0A00A7
:1034100041542B435354543D223367707273222C12
:10342000223367707273222C223367707273220DFD
:103430000A00000041542B43474154543D310D0ACA
:103440000000000041542B53415042523D312C3179
:103450000D0A00000000C8420000808000002041EA
:1034600041542B48545450494E49540D0A00000011
:1034700041542B48545450504152413D22434944F9
:10348000222C310D0A000000183C000841542B4842
:10349000545450414354494F4E3D310D0A000000F1
:1034A00041542B485454505445524D0D0A000000CD
:1034B00038020020FDF71CFEFE48FDF7CBFC46F865
:1034C000250000B96D1EFB48FDF7F8FD56F82500F4
:1034D00079686D1C08447860322DFFF66AAF32219E
:1034E000B0FBF1F0FDF77CF88246F860F249386BEA
:1034F000FCF793FEFDF78FF8F04AF14BFCF778FFED
:103500000022F04BFCF7CDFE05460E465046FDF777
:1035100082F84FF06632EC4BFCF76AFF2A463346DE
:10352000FCF7D8FFFDF78AF8B860FDF774F8E34AB6
:1035300005460E465242E54BFCF75AFF6FF00B0270
:10354000FDF737F88346019128463146E04AE14BC2
:10355000FCF74EFF2A463346FCF74AFF6FF017028E
:10356000FDF727F88246009128463146DA4ADB4BC0
:10357000FCF73EFF2A463346FCF73AFF2A4633461D
:10358000FCF736FF00221346FCF7A4FF5246009BCF
:10359000FCF728FF5A46019BFCF783FE4FF0FF32F1
:1035A000FDF707F8FDF74AF84FF4FA653861284649
:1035B000FDF79EFD6421CA48FCF7CBFDBD486421A0
:1035C000BC30FCF7C6FDAFF26811BA48BC30FFF75B
:1035D0007FF8B848BC30FCF7C7FDB64982B2BC31B1
:1035E0002346A1F14400FEF7D1FDBD492B4601223F
:1035F00001F55B70FEF760FD00287DD12846FDF7E0
:1036000077FD6421B648FCF7A4FDAA486421BC30CC
:10361000FCF79FFDAFF2A811A648BC30FFF758F8A1
:10362000A448BC30FCF7A0FDA24982B2BC312346BD
:10363000A1F14400FEF7AAFDA9492B46012201F59C
:103640005B70FEF739FD002870D12846FDF750FD6C
:103650006421A348FCF77DFD96486421BC30FCF74B
:1036600078FD3869FCF7D7FF024692480B469D4922
:10367000BC30FFF72DF88F48BC30FCF775FD8D4945
:1036800082B2BC312346A1F14400FEF77FFD94498C
:103690002B46012201F55B70FEF70EFD60BB28464C
:1036A000FDF726FD64218E48FCF753FD8148642117
:1036B000BC30FCF74EFDAFF22C217E48BC30FFF74A
:1036C00007F87C48BC30FCF74FFD7A4982B2BC3128
:1036D0002346A1F14400FEF759FD81492B46012202
:1036E00001F55B70FEF7E8FC30B940F6B830FDF745
:1036F000FFFC64217A4800E018E0FCF72AFD6D48E1
:103700006421BC30FCF725FDAFF26C216948BC3068
:10371000FEF7DEFF6748BC30FCF726FD654982B244
:10372000BC312346A1F14400FEF730FD41F288365A
:103730003046FDF7DDFCFA69632A05DC6848396923
:10374000643040F822100EE06549002011F1640158
:1037500001EB80035B6841F82030401C6228F7DDF4
:103760003869C1F88C01521C2846FA61FDF7C0FC8B
:103770007869B0F5206F0DDBB8693D4668B15A49EC
:103780005A4800BFFDF724FAA86948B15FF000006D
:10379000C5E90590B86928B114E055495248F1E7E8
:1037A0000120F5E7FDF766FD3869FCF71EFF0246CC
:1037B0000B464E48796900EB81010220FDF710FDB0
:1037C000FDF704FDB869012810D1FDF753FD3869F4
:1037D000FCF70BFF444A7B6902EB83050B4602466C
:1037E00029460220FDF7FCFCFDF7F0FC78694FF458
:1037F000FA7A401C78615046FDF77AFC4D46C7F8CE
:103800002C9064213648FCF7A4FC2A486421BC3083
:10381000FCF79FFCAFF2B8312648BC30FEF758FFEA
:103820002448BC30FCF7A0FC224982B2BC312346BC
:10383000A1F14400FEF7AAFC29492346012201F523
:103840005B70FEF739FC00287DD12046FDF750FC67
:1038500064212348FCF77DFC16486421BC30FCF74A
:1038600078FCAFF2F4311348BC30FEF731FF114859
:10387000BC30FCF779FC0F4982B2BC312346A1F180
:103880004400FEF783FC16492346012201F55B70D4
:10389000FEF712FC0028D7D12046FDF729FC642151
:1038A0000F48FCF756FC03486421BC30FCF751FC80
:1038B000104921E0380300200000C8417B14AE47C6
:1038C000E17A943F0000F03F66660A401ECB8A40D2
:1038D000EC51B81E85FB6F403D0AD7A370AD604028
:1038E00044000020703C000800D8010800B0010826
:1038F00000000208C43C0008B448FEF7E9FEB348E3
:10390000FCF732FCB14982B22346A1F14400FEF734
:103910003DFCAF492346012201F55B70FEF7CCFB6D
:10392000002891D12046FDF7E3FB6421A848FCF76D
:1039300010FC6421A548FCF70CFCA6A1A348FEF7E7
:10394000C7FEA24800E036E1FCF70EFC9F4982B2B8
:103950002346A1F14400FEF719FC9D4923460122AC
:1039600001F55B70FEF7A8FB002894D140F6B83053
:10397000FDF7BEFB64219648FCF7EBFB64219348FE
:10398000FCF7E7FB98A19148FEF7A2FE8F48FCF7F1
:10399000EBFB8E4982B22346A1F14400FEF7F6FB11
:1039A0008B493346642201F55B70FEF785FB884A3C
:1039B0000021505C5B2805D150184378662B02D05B
:1039C000742B4BD0C8E08378612B0ED1C3786C2B5D
:1039D0000BD10379732B08D14379652B05D13D6257
:1039E000C379662B02D0742B2AD0B5E0037A612B01
:1039F0000ED1437A6C2B0BD1837A732B08D1C37A07
:103A0000652B05D17D62437B662B02D0742B0BD0D6
:103A1000A2E0837B612B12D1C37B6C2B0FD1037C83
:103A2000732B0CD1407C86E0837B722B07D1C37B48
:103A3000752B04D1007C652801D10120B8628BE090
:103A4000037A722B1DD1437A752B1AD1837A652B99
:103A500017D101237B622AE0007C6CE08378722B13
:103A60007AD1C378752B77D10379652B74D1012373
:103A70003B6290F806C0BCF1660F03D0BCF1740F36
:103A800036D069E090F807C0BCF1610F64D190F8BE
:103A900008C0BCF16C0F5FD190F809C0BCF1730F86
:103AA0005AD190F80AC0BCF1650F55D17D6290F8EB
:103AB0000CC0BCF1660F03D0BCF1740F0AD04BE010
:103AC000437B612B48D1837B6C2B45D1C37B732B0C
:103AD000C2D041E090F80DC0BCF1720F3CD190F81B
:103AE0000EC0BCF1750F37D1C07B33E0BB6233E051
:103AF00090F807C0BCF1720F2ED190F808C0BCF14D
:103B0000750F29D190F809C0BCF1650F24D17B62F3
:103B100090F80BC0BCF1660F03D0BCF1740F0ED04F
:103B20001AE0037B612B17D1437B6C2B14D1837B71
:103B3000732B11D1C07B65280ED1BD620CE090F8CB
:103B40000CC0BCF1720F07D190F80DC0BCF1750F1D
:103B500002D1807B6528C9D0491C5129FFF629AFC5
:103B600017F8202F4FF400512348FDF798FCDFF899
:103B70008C903A7901214846FDF791FC3A7A02216E
:103B80004846203FFDF78BFC64211148FCF7E1FA21
:103B900064210E48FCF7DDFAAFF2FC610B48FEF73A
:103BA00097FD0A48FCF7E0FA084982B22346A1F1E2
:103BB0004400FEF7EBFA5046FDF79AFAF86A401C0B
:103BC000F8621928FFF61DAEFFF7FBBAF4030020D8
:103BD0004400002041542B48545450414354494F11
:103BE0004E3D300D0A00000041542B4854545052B1
:103BF0004541440D0A00000000100140000801404A
:103C0000000000000000000001020304060708098C
:103C1000000000000102030441542B48545450504A
:103C20004152413D2255524C222C22687474703A04
:103C30002F2F73656E736F72732D73616E736C616A
:103C4000622E6865726F6B756170702E636F6D2F79
:103C500073656E736F72732F6E686965742D646F10
:103C60003F646174613D25302E3266220D0A0000EA
:103C700041542B48545450504152413D2255524CCE
:103C8000222C22687474703A2F2F73656E736F72D2
:103C9000732D73616E736C61622E6865726F6B75E4
:103CA0006170702E636F6D2F73656E736F72732FFB
:103CB0007464733F646174613D25302E3266220D59
:103CC0000A00000041542B48545450504152413D89
:103CD0002255524C222C22687474703A2F2F73652F
:103CE0006E736F72732D73616E736C61622E686593
:103CF000726F6B756170702E636F6D2F646965757F
:103D00006B6869656E2F72656164616C6C220D0A67
:103D100000000000343D00080000002044000000C6
:103D2000F8260008783D0008440000203408000010
:103D3000082700080000000000000000000000004C
:103D40000000000000000000000000000000000073
:103D50000000000000000000000000000000000063
:103D60000000000000000000010000001000000042
:083D7000000000000024F40033
:04000005080000ED02
:00000001FF
